:020000040800F2
:1000000000000120050300080B030008110300088D
:1000100033030008390300085B03000800000000F8
:100020000000000000000000000000007D03000848
:100030008303000800000000890300088F03000804
:10004000AD030008AD030008AD030008AD030008D0
:10005000AD030008AD030008AD030008AD030008C0
:10006000AD030008AD030008AD030008AD030008B0
:10007000AD030008AD030008AD030008AD030008A0
:10008000AD030008AD030008AD0300080000000048
:10009000000000000000000000000000AD030008A8
:1000A000AD030008AD030008AD030008AD03000870
:1000B000AD030008AD030008AD030008AD03000860
:1000C000AD030008AD030008AD030008AD03000850
:1000D000AD030008AD030008AD03000800000000F8
:1000E000AD030008AD030008AD03000800000000E8
:1000F000000000000000000000000000AD03000848
:1001000000000000AD030008AD030008AD030008C7
:1001100000000000000000000000000000000000DF
:10012000AD030008AD030008AD030008AD030008EF
:10013000AD03000800000000000000000000000007
:10014000000000000000000000000000AD030008F7
:10015000AD030008AD030008AD030008AD030008BF
:10016000AD030008AD03000800000000000000001F
:10017000000000000000000000000000000000007F
:1001800000000000AD0300080000000000000000B7
:10019000AD03000880B596B000AF00F037F94F4BC3
:1001A0007B6524E07B6D1A1D7A651B683B647B6D63
:1001B0001A1D7A651B68FB637B6D1A1D7A651B68C7
:1001C000BB633B6C7B63FB6B3B63BB6BFB623B6B5F
:1001D000BB6207E07A6B131D7B63BB6A191DB962B2
:1001E00012681A60FA6ABB6A9A42F3D800BF7B6D44
:1001F0003B4A9342D6D33B4B3B651AE03B6D1A1DFD
:100200003A651B68BB643B6D1A1D3A651B687B64CD
:10021000BB6C7B627B6C3B627B6AFB6104E0FB69CD
:100220001A1DFA6100221A603A6AFB699A42F6D8EE
:1002300000BF3B6D2C4A9342E0D300F0F5F83A1D25
:1002400007F108031146184600F0CEF8274A284B5C
:10025000D31A9B103B610023FB6007E0244AFB6834
:1002600052F823309847FB680133FB603A69FB681A
:100270009A42F3DC1F4A204BD31A9B103B610023A8
:10028000FB6007E01C4AFB6852F823309847FB6884
:100290000133FB603A69FB689A42F3DC00BFBB683C
:1002A0007A681146184600F06BF9F864134A144B4B
:1002B000D31A9B10BB61BB697B6108E07B69013B82
:1002C0000F4A52F8233098477B69013B7B617B6979
:1002D000002BF3DC00BFF86C00F080F8B4030008DA
:1002E000CC030008CC030008DC030008DC03000892
:1002F000DC030008DC030008DC030008DC03000862
:10030000DC0300082548004700BF80B400AFFEE7CB
:100310001EF0040F0CBFEFF30880EFF30980714665
:100320001F4A104700BF80B483B000AF78603960C7
:10033000FEE780B400AFFEE71EF0040F0CBFEFF342
:100340000880EFF309807146164A104700BF80B459
:1003500083B000AF78603960FEE71EF0040F0CBF79
:10036000EFF30880EFF3098071460F4A104700BF92
:1003700080B483B000AF78603960FEE780B400AF2E
:10038000FEE780B400AFFEE780B400AFFEE780B4C4
:1003900000AF00BFBD4680BC70470000950100085B
:1003A000270300084F0300087103000880B400AF62
:0203B000FEE766
:1003B40000100008000000201800002000100008B1
:1003C4000000001000000010180000201C00002095
:0803D400000000100000001001
:1003DC0080B582B000AF786000F03CF880B483B098
:1003EC0000AF786039607B6801221A603B68034A71
:1003FC001A6000BF0C37BD4680BC7047000000205F
:10040C0080B500AF00F02AF8024B034A9A6000BF97
:10041C0080BD00BF00ED00E00000000880B500AF1B
:10042C0000F028F800BF80BD80B400AFBFF34F8F41
:10043C0000BF064BDB6803F4E0620449044B134332
:10044C00CB60BFF34F8F00BF00BFFDE700ED00E0B6
:10045C000400FA0580B500AFFFF7E6FF80B400AFEB
:10046C00034B4FF000629A6000BFBD4680BC7047E2
:10047C0000ED00E080B487B000AF00233B610023A7
:10048C007B610223FB600023BB6002237B60344B47
:10049C009B6803F00C033B613B69082B11D03B6953
:1004AC00082B44D83B69002B03D03B69042B04D0A8
:1004BC003DE02C4B2C4A1A603DE02A4B2B4A1A602B
:1004CC0039E0274B5B689B0D03F00103BB60244BA9
:1004DC005B6803F03F037B60BB68002B0CD0234AA6
:1004EC007B68B2FBF3F31E4A52689209C2F308020E
:1004FC0002FB03F37B610BE01B4A7B68B2FBF3F35B
:10050C00174A52689209C2F3080202FB03F37B619B
:10051C00134B5B681B0C03F0030301335B00FB60A4
:10052C007A69FB68B2FBF3F30E4A136003E00D4BE0
:10053C000D4A1A6000BF0A4B9B681B0903F00F039E
:10054C000B4AD35C3B61074B1A683B6922FA03F3F5
:10055C00044A136000BF1C37BD4680BC704700BF07
:10056C0000380240080000200024F40000127A0039
:10057C00F00F000880B582B000AF00F007FA002041
:10058C0000F012FA012000F00FFA00F061FA0023DB
:10059C0000220821422000F031FB00230022092117
:1005AC00422000F02BFB002300220A21422000F005
:1005BC0025FB1C4B1B681B4A23F00C031360194BC7
:1005CC001B68184A43F004031360164B1B68154A4A
:1005DC0023F030031360134B1B68124A43F01003D3
:1005EC001360104B1B680F4A23F0C00313600D4BB4
:1005FC001B680C4A43F04003136000237B6000230C
:10060C007B6009E07B68D9B200230122412000F015
:10061C00F5FA7B6801337B607B68062BF2D900F01E
:10062C005FFAFCE70C04024080B582B000AF00F02A
:10063C00DBFA0346FB71FB79092B00F27F8101A2E7
:10064C0052F823F00109000879060008C1060008D9
:10065C00090700085107000899070008E10700087E
:10066C002908000871080008B908000800220021B8
:10067C00412000F0A9FB01220121412000F0A4FB44
:10068C0001220221412000F09FFB00220321412086
:10069C0000F09AFB00220421412000F095FB00227F
:1006AC000521412000F090FB00220621412000F0A2
:1006BC008BFB67E101220021412000F085FB012228
:1006CC000121412000F080FB00220221412000F09A
:1006DC007BFB01220321412000F076FB0122042147
:1006EC00412000F071FB00220521412000F06CFB41
:1006FC0001220621412000F067FB43E10122002189
:10070C00412000F061FB01220121412000F05CFB43
:10071C0001220221412000F057FB0122032141203C
:10072C0000F052FB00220421412000F04DFB00227E
:10073C000521412000F048FB01220621412000F058
:10074C0043FB1FE100220021412000F03DFB012270
:10075C000121412000F038FB01220221412000F050
:10076C0033FB00220321412000F02EFB0022042148
:10077C00412000F029FB01220521412000F024FB3F
:10078C0001220621412000F01FFBFBE00122002189
:10079C00412000F019FB00220121412000F014FB44
:1007AC0001220221412000F00FFB012203214120F4
:1007BC0000F00AFB00220421412000F005FB01227D
:1007CC000521412000F000FB01220621412000F010
:1007DC00FBFAD7E001220021412000F0F5FA0022BB
:1007EC000121412000F0F0FA01220221412000F009
:1007FC00EBFA01220321412000F0E6FA0122042148
:10080C00412000F0E1FA01220521412000F0DCFA40
:10081C0001220621412000F0D7FAB3E00122002189
:10082C00412000F0D1FA01220121412000F0CCFA44
:10083C0001220221412000F0C7FA002203214120AD
:10084C0000F0C2FA00220421412000F0BDFA00227F
:10085C000521412000F0B8FA00220621412000F0C9
:10086C00B3FA8FE001220021412000F0ADFA012201
:10087C000121412000F0A8FA01220221412000F0C0
:10088C00A3FA01220321412000F09EFA0122042147
:10089C00412000F099FA01220521412000F094FA40
:1008AC0001220621412000F08FFA6BE00122002189
:1008BC00412000F089FA01220121412000F084FA44
:1008CC0001220221412000F07FFA00220321412065
:1008DC0000F07AFA00220421412000F075FA01227E
:1008EC000521412000F070FA01220621412000F080
:1008FC006BFA47E001220021412000F065FA012249
:10090C000121412000F060FA01220221412000F077
:10091C005BFA01220321412000F056FA0122042146
:10092C00412000F051FA01220521412000F04CFA3F
:10093C0000220621412000F047FA23E00122002189
:10094C00412000F041FA01220121412000F03CFA43
:10095C0001220221412000F037FA0122032141201B
:10096C0000F032FA01220421412000F02DFA01227C
:10097C000521412000F028FA00220621412000F038
:10098C0023FA00BF00BF0837BD4680BD80B400AF5E
:10099C00044B1B68034A43F00103136000BFBD46C0
:1009AC0080BC70470038024080B485B000AF03466D
:1009BC00FB71FB795B09FB73FB7903F01F03BB73C2
:1009CC00FB7B032B36D801A252F823F0E90900086F
:1009DC00FF090008150A00082B0A0008184B1B68B1
:1009EC00BA7B012101FA02F21146154A0B4313603E
:1009FC0021E0144B1B68BA7B012101FA02F211466B
:100A0C00104A0B43136016E00F4B1B68BA7B012195
:100A1C0001FA02F211460C4A0B4313600BE00B4B2C
:100A2C001B68BA7B012101FA02F21146074A0B43FB
:100A3C00136000E000BF00BF1437BD4680BC704798
:100A4C0030380240343802404038024044380240CA
:100A5C0080B582B000AF0023FB710823FB711FE04F
:100A6C00F97900230022422000F0C8F81B4B1B68C8
:100A7C00FA795200032101FA02F2D2431146174AC5
:100A8C000B401360154B1B68FA795200022101FAD6
:100A9C0002F21146114A0B431360FB790133FB71CF
:100AAC00FB790A2BDCD90C23FB710EE0F9790023BE
:100ABC000122422000F0A2F8FB79002219464220C4
:100ACC0000F082F9FB790133FB71FB790F2BEDD927
:100ADC0000BF00BF0837BD4680BD00BF0C040240FC
:100AEC0080B584B000AF0C23FB606EE0FB68DBB21A
:100AFC0001221946422000F067F90823BB6057E039
:100B0C00BB68DBB21946422000F016FA0346FB70B4
:100B1C00FB78012B49D100237B6002E07B68013319
:100B2C007B607B682D4A9342F8D9BB68DBB21946CF
:100B3C00422000F001FA0346FB70FB78012B34D104
:100B4C00FB68A3F10C02BB68A3F10801244813460F
:100B5C005B00134403440B441B78BB70BB780C2B19
:100B6C000ED00C2B10DC0A2B02D00B2B04D00BE07C
:100B7C001C4B00221A700BE01A4B00221A7007E073
:100B8C00184B00221A7003E0164ABB78137000BF92
:100B9C00FFF74AFD00237B6002E07B6801337B603A
:100BAC007B684CF24F329342F7D9BB680133BB6080
:100BBC00BB680A2BA4D9FB68DBB200221946422081
:100BCC0000F002F9FB680133FB60FB680F2B8DD939
:100BDC0000BF00BF1037BD4680BD00BF9F8601001F
:100BEC000C0000201900002080B400AF024B1B78D1
:100BFC001846BD4680BC70471900002090B482B0E6
:100C0C0000AF0446084611461A462346FB710346BC
:100C1C00BB710B467B7113463B71FB79413B032B3C
:100C2C0000F2C08001A252F823F000BF490C00086A
:100C3C00A30C0008FD0C0008570D00085C4B1B684A
:100C4C00BA795200032101FA02F2D2431146584AF2
:100C5C000B401360564B1B687979BA79520001FA34
:100C6C0002F21146524A0B431360524B1B68BA797D
:100C7C00012101FA02F2D24311464E4A0B40136095
:100C8C004C4B1B683979BA7901FA02F21146494A80
:100C9C000B43136087E0484B1B68BA795200032161
:100CAC0001FA02F2D2431146434A0B401360424B05
:100CBC001B687979BA79520001FA02F211463E4A60
:100CCC000B4313603D4B1B68BA79012101FA02F208
:100CDC00D2431146394A0B401360384B1B683979A3
:100CEC00BA7901FA02F21146344A0B4313605AE006
:100CFC00334B1B68BA795200032101FA02F2D2433A
:100D0C0011462F4A0B4013602D4B1B687979BA7929
:100D1C00520001FA02F21146294A0B431360294B87
:100D2C001B68BA79012101FA02F2D2431146254A15
:100D3C000B401360234B1B683979BA7901FA02F224
:100D4C001146204A0B4313602DE01D4B1B68BA79EA
:100D5C005200032101FA02F2D2431146184A0B4009
:100D6C001360174B1B687979BA79520001FA02F2B9
:100D7C001146134A0B431360124B1B68BA790121BD
:100D8C0001FA02F2D24311460E4A0B4013600D4B8E
:100D9C001B683979BA7901FA02F21146094A0B43F8
:100DAC00136000E000BF00BF0837BD4690BC704721
:100DBC00000002400400024000040240040402400F
:100DCC00000802400408024080B485B000AF03461E
:100DDC00FB710B46BB7113467B71FB79413B032BBB
:100DEC0000F2948001A252F823F000BF090E000813
:100DFC00550E0008810E0008CD0E0008494B1B68EB
:100E0C00BA795200032101FA02F21A40BB795B0055
:100E1C0022FA03F3FB73FB7B012B79D1424B1B684A
:100E2C00BA79012101FA02F2D24311463E4A0B4033
:100E3C0013603D4B1B687979BA7901FA02F21146BD
:100E4C00394A0B43136063E0384B1B68BA790121B4
:100E5C0001FA02F2D2431146344A0B401360334B71
:100E6C001B687979BA7901FA02F211462F4A0B43C1
:100E7C00136052E02E4B1B68BA795200012101FA23
:100E8C0002F21A40BB795B0022FA03F3FB73FB7B83
:100E9C00012B3FD1274B1B68BA79012101FA02F2D1
:100EAC00D2431146234A0B401360224B1B687979BD
:100EBC00BA7901FA02F211461E4A0B43136029E07B
:100ECC001B4B1B68BA795200012101FA02F21A403D
:100EDC00BB795B0022FA03F3FB73FB7B012B1BD169
:100EEC00144B1B68BA79012101FA02F2D243114664
:100EFC00104A0B4013600F4B1B687979BA7901FAD1
:100F0C0002F211460B4A0B43136005E000BF04E0EC
:100F1C0000BF02E000BF00E000BF00BF1437BD46B9
:100F2C0080BC7047000002401400024014040240D0
:100F3C00000802401408024080B485B000AF03469C
:100F4C000A46FB711346BB71FB79413B032B3BD823
:100F5C0001A252F823F000BF750F00088D0F000896
:100F6C00A50F0008BD0F00081B4B1B68BA790121A7
:100F7C0001FA02F21A40BB7922FA03F3FB7324E064
:100F8C00164B1B68BA79012101FA02F21A40BB799F
:100F9C0022FA03F3FB7318E0114B1B68BA79012199
:100FAC0001FA02F21A40BB7922FA03F3FB730CE04C
:100FBC000B4B1B68BA79012101FA02F21A40BB797A
:100FCC0022FA03F3FB7300E000BFFB7B18461437D7
:100FDC00BD4680BC704700BF1000024010040240A8
:100FEC001008024000000000000000000102030491
:040FFC0006070809D3
:1010000018000020000000000024F4000102030486
:081010000506070809000000B5
:040000050800019559
:00000001FF
